:020000020000FC
:040000000C944D000F
:040044000C942A00EE
:10004C000C9436000C9446000FB70F932EB5E0E0DD
:10005C00F1E0208318E2E1ECF0E010830C94430013
:10006C000FB70F93E0E0F1E02081C6ECD0E02883DD
:10007C00F89418E4E1ECF0E010830F910FBF1895A1
:10008C000FB70F9310E0E1ECF0E01083F6CFF8948B
:10009C000FEF0DBF04E00EBF00E0E0ECF0E00083DA
:1000AC0006E0E2ECF0E0008307E6E4ECF0E000832D
:1000BC0002EC0CBD00E304B90CE305B97894000024
:0200CC00FECF65
:00000001FF
