:020000020000FC
:040000000C948600D6
:100048000C942A000C9453000C9469000FB70F937A
:10005800E6ECF0E00081E1E0F1E010811395113069
:1000680059F0E0E0F1E0208130E0C3E0D1E0C20FD8
:10007800D31F08830C9448000A3020F51083E0E071
:10008800F1E000830930F0F410E0E1E0F1E01083E2
:10009800F89418E2E1ECF0E010830C9466000FB7D6
:1000A8000F93E0E0F1E0108120E0C3E0D1E0C10F60
:1000B800D21F2881C6ECD0E02883F89418E4E1EC3C
:1000C800F0E010830F910FBF18950FB70F9300E959
:1000D800E1ECF0E00083F6CFF0903F00FF920F9341
:1000E800EF93FF9300E0E3E0F1E00A3021F003959D
:1000F80001930C947900FF91EF910F91FF90F0928A
:100108003F000895F8940FEF0DBF04E00EBF00E024
:10011800E0ECF0E0008306E0E2ECF0E0008307E6C4
:10012800E4ECF0E0008300E9E1ECF0E0008378948F
:080138000E9470000000FECFE0
:00000001FF
