:020000020000FC
:02000000D6C068
:020014001FC00B
:0200240029C0F1
:0200400028C0D6
:10004C000C94BE000C94CC000FB70F9360E066BD0F
:10005C0000E0E8E6F0E0008300E0E0E7F0E0008399
:10006C0001E0EEE6F0E000830C94BB000FB70F93B9
:10007C0018B1183021F0110F18B90C94B60011E01A
:10008C0018B90C94B6000FB70F9319B126B100E054
:10009C00EEE6F0E00083103711F40C94AE00412F23
:1000AC00522FC0E0D1E0213041F0223071F02430E9
:1000BC00A1F02830D1F00C94AE001034F1F01032D5
:1000CC00F9F0103101F10C94AE001034F9F010324B
:1000DC0001F1103109F10C94AE00103401F1103221
:1000EC0009F1103111F10C94AE00103409F11032F9
:1000FC0011F1103119F10C94AE0031E30C94A700FE
:10010C0032E30C94A70033E30C94A70034E30C9473
:10011C00A70035E30C94A70036E30C94A70037E353
:10012C000C94A70038E30C94A70039E30C94A700B7
:10013C003AE20C94A70030E30C94A70033E20C9441
:10014C00A700388318E2E1ECF0E010830C94BB00BC
:10015C0060E0E2EBF0E0608301E0E0E7F0E00083D8
:10016C0004E0E8E6F0E0008300C00F910FBF1895A3
:10017C000FB70F93C0E0D1E02881C6ECD0E0288304
:10018C00F89418E4E1ECF0E01083EFCF0FB70F9385
:10019C0000E0E1ECF0E0008304E0E8E6F0E000834E
:1001AC00E4CFF8940FEF0DBF04E00EBF00E0E0ECDD
:1001BC00F0E0008306E0E2ECF0E0008307E6E4EC1C
:1001CC00F0E000830FE007B900E008B900E00AB9DD
:1001DC0000E00BB911E018B900E1E5E3F0E00083B1
:1001EC0002E005BD00E004BD05E0E1EBF0E00083BA
:1001FC0000E0E0EBF0E0008301E0E0E7F0E00083FA
:10020C0004E0E8E6F0E0008300E7EDE6F0E00083D0
:08021C00789400000C940F011E
:00000001FF
