:020000020000FC
:040000000C94440018
:100044000C9439000C9426000FB70F93E6ECF0E003
:100054003081E0E0F1E0308315B11B7F15B93EBD7E
:1000640000E0E1ECF0E000830F910FBF18950FB7AB
:100074000F9315B1146015B900E9E1ECF0E00083C9
:100084000C943600F8940FEF0DBF04E00EBF00E0AF
:10009400E0ECF0E0008306E0E2ECF0E0008307E649
:1000A400E4ECF0E0008300E9E1ECF0E0008302ED31
:1000B4000CBD0CE204B90CE305B978940000FECF42
:00000001FF
