:020000020000FC
:040000000C945A0002
:100048000C942A000C943F000C9454000FB70F93A3
:10005800E6ECF0E00081E0E0F1E00193008300E0ED
:10006800E2E0F1E00083F89408E6E1ECF0E00083D8
:100078000F910FBF18950FB70F9310E0E2E0F1E072
:100088000081023051F0C0E0D1E0C00FD11F2881BB
:10009800C6ECD0E02883039500830F910FBF189515
:1000A8000FB70F9300000F910FBF1895F8940FEF3B
:1000B8000DBF04E00EBF00E0E0ECF0E0008306E2D4
:1000C800E2ECF0E0008307E6E4ECF0E0008300E90E
:0C00D800E1ECF0E0008378940000FECF23
:00000001FF
